:020000040800F2
:1000000050090024C1030008C1740008996D00085C
:10001000B974000851100008219200080000000087
:10002000000000000000000000000000E977000868
:100030009914000800000000D1740008F17700084E
:10004000E3030008C9740008E3030008E3030008A1
:10005000E3030008E3030008E3030008E3030008E8
:10006000E3030008E3030008E30300085910000855
:10007000E3030008E3030008E3030008E3030008C8
:10008000E3030008E3030008E3030008E3030008B8
:10009000E3030008E3030008E3030008E3030008A8
:1000A000E3030008E3030008E3030008E303000898
:1000B000E3030008E3030008E3030008E303000888
:1000C000E3030008E3030008E3030008E303000878
:1000D000E3030008C9910008E3030008E3030008F4
:1000E000A1140008E303000800000000E303000877
:1000F000E3030008E3030008E3030008E303000848
:10010000E3030008E3030008E3030008E303000837
:10011000E3030008E3030008E3030008E303000827
:10012000E3030008E3030008E3030008E303000817
:10013000E3030008E3030008E3030008E303000807
:1001400000000000000000000000000000000000AF
:10015000E3030008E3030008E3030008E3030008E7
:10016000E3030008E3030008E3030008E3030008D7
:10017000E3030008E3030008E303000800000000B5
:10018000E3030008E3030008E3030008E3030008B7
:10019000E3030008E3030008E3030008E3030008A7
:1001A000E3030008E3030008E3030008E303000897
:1001B000E3030008E3030008E3030008E303000887
:1001C000E3030008E3030008E3030008E303000877
:1001D000E3030008E3030008E3030008E303000867
:1001E000E3030008E3030008E3030008E303000857
:1001F000E3030008E3030008E3030008E303000847
:10020000E3030008E3030008E3030008E303000836
:10021000E3030008E3030008E3030008E303000826
:10022000E3030008E3030008E30300080000000004
:10023000E3030008E303000800000000E3030008F4
:10024000E3030008E3030008E3030008E3030008F6
:10025000E3030008E3030008E3030008E3030008E6
:10026000E3030008E3030008E3030008E3030008D6
:10027000E3030008E3030008E303000800000000B4
:10028000E3030008E3030008E303000800000000A4
:1002900000000000E303000800F002F800F080F81E
:1002A00014A696E8000CB244B344DA4501D100F03C
:1002B00077F8BAE80F000FA696E83000A5EB040522
:1002C00004EB0607AAEB0704A7F101074FEA15158F
:1002D0004FEA3414A4F10104AC4201D300F060F8F9
:1002E00013F0010F18BFFB1A43F0010300F001F8EF
:1002F000DBE71847AC9C0000DC9C00000A4410F8C7
:10030000014B14F00F0508BF10F8015B240908BF6A
:1003100010F8014B6D1E05D010F8013B6D1E01F861
:10032000013BF9D1641E03D0641E01F8015BFBD1CF
:100330009142E4D370470000103A24BF78C878C1D6
:10034000FAD8520724BF30C830C144BF04680C60DB
:10035000704700007047000000230024002500269D
:10036000103A28BF78C1FBD8520728BF30C148BF18
:100370000B607047662909F0F884642900F0C0809A
:10038000002070471FB509F0E3FC00F08BFB040070
:100390000020002109F0C6FCE0601FBD10B510BDB3
:1003A00000F07CFC1146FFF7EDFF08F05DFF00F068
:1003B0009AFC03B4FFF7F2FF03BC08F035FF00001E
:1003C0000B4880470B4880470B4880470B48004745
:1003D000FEE7FEE7FEE7FEE7FEE7FEE7FEE7FEE7F5
:1003E000FEE7FEE706480749074A084B704700004A
:1003F000B9140008D9780008C979000899020008E2
:100400005003002450090024500500245005002406
:1004100053EA020C00F069802DE9F04B4FF0000622
:10042000002B1FBFB3FA83F503FA05F424FA05F68F
:100430005E4012BF1643B2FA82F502FA05F4C5F126
:1004400020051EBF22FA05FC44EA0C04203556EABA
:10045000044C4FEA144418BF641C4FF000084FF0DE
:100460000009904271EB030C39D3002919BFB1FA8E
:1004700081F701FA07F6B0FA80F700FA07F6C7F13C
:1004800020071EBF20FA07FC46EA0C062037B6FB01
:10049000F4FCA7EB0507103F07F01F0BCBF120067C
:1004A0002CFA06F60CFA0BFB44BFB3460026202FAD
:1004B000A4BF5E464FF0000B5BEA060C08BF4FF08E
:1004C000010B19EB0B0948EB0608ABFB027C06FBA2
:1004D00002CC0BFB03CCC01B71EB0C01C1E70B463C
:1004E000024641464846BDE8F08B13B5084318BFA5
:1004F0004FF0FF300146AFF30080BDE81C4070476D
:100500002DE9F0410646002410687529314616A5EC
:1005100010D0AFF30080002802DA404213A507E0B4
:1005200031688A0701D512A502E0490704D511A553
:10053000012401E0AFF3008000210A2206F1240724
:1005400009E0B0FBF2FCB0FBF2F302FB1C00303020
:1005500078541846491C0028F3D123462A463046D1
:10056000BDE8F04100F032B8000000002D000000AE
:100570002B000000200000004FF0000200B51346E1
:1005800094469646203922BFA0E80C50A0E80C50B3
:10059000B1F12001BFF4F7AF090728BFA0E80C5064
:1005A00048BF0CC05DF804EB890028BF40F8042B5D
:1005B00008BF704748BF20F8022B11F0804F18BFCA
:1005C00000F8012B70477047704770472DE9F047DE
:1005D0000D4699469246044600F1240801688806B3
:1005E00004D5E06921F01001216000E00120A8425B
:1005F00001DD471B00E00027A1697A1902EB090021
:10060000081AA0612078C00602D42046AFF300800B
:10061000002608E0D4E901211AF806009047206A74
:10062000401C761C20624E45F4DB2078C0060AD5BB
:100630002046AFF3008006E0D4E901213020904746
:10064000206A401C2062381EA7F10107F4DC07E095
:10065000D4E9012118F805009047206A401C206267
:10066000281EA5F10105F3DC2046AFF300802078B9
:10067000000602D50220BDE8F0870120FBE72DE946
:10068000FF4F0C461E464FF0FF378BB0D2E90001FA
:10069000DDF860800A908A46C1F30A5505B93D46E7
:1006A000002108464FF00000BAF1000F00F44000AE
:1006B00005DA00EB80004FF4400101EA50004FEAF8
:1006C0009059B9F1010F00DDB9460A9850EA4A0085
:1006D0000ED044F61050A5F2FF3545432F14B8F163
:1006E000000F1ED07542291E1EDDC9F100021CE05C
:1006F000B8F1010F4FF0000001D0302103E0F243C8
:1007000005E02154401CB042FBDB304600220021B2
:1007100021540B99C1F80880C1E900200FB0BDE851
:10072000F08FBD1B6D1CDEE74A4600DA694206A861
:1007300000F042FA06AB93E8070003AB83E807003A
:1007400050460A9908F00DFF8DE80700A0F500500B
:100750001F3800900398002D0ADD42F21F014A461F
:100760000844002303A90390684609F077F909E0DB
:10077000A0F500504A461F38002303A9039068469D
:1007800009F081F98DE807000004000C03D04FF058
:10079000FF30410800E01046B8F1000F03D00022FE
:1007A000009215461EE0751E05D400F07FF9303228
:1007B00062556D1EF9D5B3460122084302D00022CE
:1007C0007F1C04E02078302801D100227F1E002AFF
:1007D000099784D01DE0112D07DA00F067F9303257
:1007E00062556D1C50EA0102F5D1084302D0009811
:1007F000C8B10EE00021681E05E0235C625C635412
:100800002254401E491C8142F7DBAB46A81B401E08
:100810000990002004F80B000B98099AC0F8088092
:10082000C0E9002B7AE711264FF0000857E72DE9C1
:10083000F04F88460446D21D22F0070191B0D1E95D
:100840000001CDE90A0109F055FA02460B98C00FE4
:1008500001D02D2007E02068810701D52B2002E080
:10086000202101EAC000032A099001D0072A05DBF4
:1008700003464146204600F05FF90BE120788006F0
:1008800001D5E06900E00620B8F1650F814606D089
:10089000B8F1660F18D0B8F1670F70D131E00020C1
:1008A000B9F1110F009001DB112301E009F10103FF
:1008B0000AAA01A90CA8FFF7E2FEDDE90C700026E8
:1008C00009F10105834647E001204B4600904FF0B7
:1008D00000470AAA01A90CA8FFF7D1FEDDE90DB077
:1008E0000C995D46002610B909F101000D18B9EB0D
:1008F000050003D4C0F1FF3609F10105A5EB09009D
:100900002BE0B9F1010F01DA4FF001090020B9F134
:10091000110F0090484601DD112300E003460AAAAA
:1009200001A90CA8FFF7ABFEDDE90C704D460026CF
:100930008346207800070AD4AB4500DA5D4601A85B
:10094000012D04DD411911F8011C302907D04F4554
:1009500002DA17F1040F04DA012082460FE06D1E5F
:10096000EEE7002F02DCED1B3E4403E0781CA842BA
:1009700000DD7D1CB81B00F1010A4FF00047207814
:10098000000703D4AA4501DB4FF0FF3A0021B7F17D
:10099000004F0DF143088DF8431024D002202B2383
:1009A000002F01DA7F422D230A21021EA0F101004F
:1009B00000DC5FB197FBF1FC97FBF1F201FB1C7CC3
:1009C00017460CF1300C08F801CDEEE7A8F1010054
:1009D00003702188090501D5452100E06521A0F1BA
:1009E000010800F8011C09980FA9A1EB0807FF1DD9
:1009F00000B10120411901EBEA70A1693844081ADD
:100A0000401EA0612078C00602D42046AFF30080CB
:100A1000099828B1D4E901219047206A401C20623E
:100A20002078C00622D52046AFF300801EE0002EBD
:100A300004DBB34502DD01A8805D00E03020D4E98D
:100A400001219047206A401C2062761CAAF1010017
:100A50005FEA000A0AD100F025F8C0680168405C2E
:100A6000D4E901219047206A401C2062281EA5F18C
:100A70000105DCDC07E0D4E9012118F8010B9047FF
:100A8000206A401C2062381EA7F10107F3DC2046D3
:100A9000AFF30080032011B041E60000004870472A
:100AA00010000024004870473000002430B5B0F139
:100AB0000A0271F100034FEA900E4EEA817EB0EB1C
:100AC0000E0061EB91014FEA101E4EEA017E10EB21
:100AD0000E0041EB11114FEA102E4EEA016E10EBA1
:100AE0000E0041EB11214FEA104E4EEA014E10EB81
:100AF0000E0041EB1141401841F100014FEAD000D6
:100B000040EA41704FEAD1014FEA810444EA90740F
:100B100010EB800544EB01046D1944EB0404521BF7
:100B2000A3414FF0000348BF0A3200D530BD401C3E
:100B300041F1000130BD00002DE9F0411F4604469F
:100B400003260168072A01F4006004DB08B116A53A
:100B500005E016A503E008B115A500E015A521F0F4
:100B600010002060A069C01EA0610FB1401EA061EE
:100B70002046AFF300804FB1D4E9012138469047B9
:100B8000206A401C2062C01C206206E0206AFAE74E
:100B9000D4E9012115F8010B9047761EF8D22046C2
:100BA000AFF30080BDE8F0814E414E006E616E00F3
:100BB000494E4600696E66002DE9F04781461646AB
:100BC0008AB0354878440DC88DE80D003248784425
:100BD000801C03AC0DC884E80D0041F69B3008442E
:100BE000372190FBF1F290FBF1F5A5F1800501FBB7
:100BF00012041B3C02D56442012000E00020DFF813
:100C000098A080460027FA44AAF1BE0A0EE0E00749
:100C10000AD03246684607EB470101230AEB8101FF
:100C200008F031FF8DE8070064107F1C002CEED126
:100C3000194F7F44AE3F19E0E80715D007EB0410C9
:100C40000DF1180A90E80E008AE80E00C068F04224
:100C500001D1981908903246012306A903A808F08B
:100C600012FF03AB83E807006D10641C002DE3D175
:100C70004FF0010332466946B8F1000F03A802D0D5
:100C800008F0ECFE01E008F0FEFEC9E90001C9F839
:100C900008200AB0BDE8F087249200007546FFF7EF
:100CA000FDFEAE4605006946534620F00700854626
:100CB00018B020B5FFF796FBBDE820404FF00006C6
:100CC0004FF000074FF000084FF0000BAC46ACE8C7
:100CD000C009ACE8C009ACE8C009ACE8C00921F023
:100CE00007018D46704710B50446AFF300802046DB
:100CF000BDE81040FFF75DBB30B44FF0013C50F849
:100D0000042BCCFA52F451F8043BD51A20D1FCB98B
:100D100050F8042BCCFA52F451F8043BD51A17D1F1
:100D2000B4B950F8042BCCFA52F451F8043BD51A5C
:100D30000ED16CB950F8042BCCFA52F451F8043BA4
:100D4000D51A05D1002CDAD030BC4FF00000704726
:100D500029BAB1FA81F111F01801D1F120008440D3
:100D6000F2D1CA40CB4012F0FF0213F0FF0330BCB7
:100D7000D01A704700000000B0B50446006842F287
:100D8000001140F48070C4F20201884218D142F28E
:100D90000830C4F20200006810F4403F18D004F09C
:100DA0001BFE61680546B1F5803F05D0B1F5403FB7
:100DB0002CD0B1F5003F2AD1080CB5FBF0F526E0A8
:100DC00046F20830C5F60200006810F4403FE6D154
:100DD0004FF40020002103F04BFD61680546A1F5AA
:100DE00080224FEAB2420A2A11D8DFE802F0070750
:100DF0000707070755535951570000BF6FF001000F
:100E000000EA5140B5FBF0F501E000BFAD0802F08B
:100E1000ABFF41F2030188420ED8206842F601512F
:100E2000C0F231118D4281682CBF41F4807121F4F0
:100E300080718160B0BD00BF4BF62140C0F2BE00A2
:100E4000854205D82068816821F440718160B0BD79
:100E500047F64100C0F27D10854207D82068012284
:100E6000816862F309218160B0BD00BF20684FF244
:100E70008101C0F2FA218D42816805D8022262F315
:100E800009218160B0BD00BF41F440718160B0BDF7
:100E9000ED09BCE76D09BAE72D09B8E72D0AB6E7F9
:100EA000AD09B4E7000000000146806B426D12F00E
:100EB000500F426D06D0D20610D4C06CC26C0846EA
:100EC000104700BF42F40071416501680A681207CB
:100ED000CA6805D4910709D000F01ABF00F030BFEE
:100EE00012F4406FF8D1C9688904F5D4416D21F43A
:100EF00080714165416DC904EED4416D41F001013D
:100F0000416500F005BF0000806B416D41F040017C
:100F10004165816D41F00401816500F011BF000061
:100F2000806B00F009BF0000B0B5016804468A6814
:100F30008868C0074FF0000031D012F0020218BFDD
:100F4000B0BD886800F00D0001281FD14FF6C072B7
:100F50008868C7F6FF72104002308860032008607E
:100F600002F00AFF21688968C90701D10020B0BDDD
:100F7000054602E08068C007F8D002F0FDFE401B85
:100F800003282068F6D38168C907F3D0606D40F06C
:100F900010006065A06D40F00100A0650120B0BDAB
:100FA000F0B581B0044600688168C9074AD14FF6A0
:100FB000C0778168C7F6FF7707F17F0211420BD037
:100FC000606D40F010006065A06D40F00100A0650C
:100FD000012001B0F0BD00BF8168394041F001013E
:100FE000816002F0C9FE42F2000246F20836C4F205
:100FF0000202216802F5807302F54275C5F6020609
:10100000994208BF2E46914208BF2E469942054696
:10101000306814D110F01F0014D110E08868C007A8
:1010200004D18868384040F00100886002F0A4FED6
:10103000401B2168032802D30868C007C0D0086895
:10104000C007EBD0002001B0F0BD000000000000A0
:10105000FEE700000000000040F2E810C2F200408D
:1010600001F06EBC0000000040F20F42D0F800C05A
:10107000C4F20202944511DC6F22C4F202029445CC
:1010800022DC3F22C4F20202944539DC1022C4F271
:10109000020294455AD0282254E000BF40F26F4229
:1010A000C4F2020294451BDC40F23F42C4F2020249
:1010B00094452DDC40F21042C4F20202944545D022
:1010C00040F228423EE000BF9F22C4F20202944553
:1010D00028DC7022C4F20202944537D0882231E025
:1010E00040F29F42C4F20202944523DC40F2704277
:1010F000C4F20202944529D040F2884222E000BFA7
:101100004022C4F20202944520D058221AE000BFC7
:1011100040F24042C4F20202944517D040F25842D5
:1011200010E000BFA022C4F2020294450ED0B82203
:1011300008E000BF40F2B842C4F20202944505D074
:1011400040F2A042C4F20202944517D10CF0F8021A
:101150004AF6AB23103ACAF6AA23A2FB03310AA32C
:101160005F2AC1F302115B5C40F2FF312CEA0101FE
:10117000C36588BF04318165084670472CF0FF01C4
:1011800081650846704700BF00061016000610165D
:1011900070B540F26F44D0F800C0C4F20204D0F839
:1011A00058E0A4451ADC9F25C4F20205AC4533DCA7
:1011B0005725C4F20205AC455ADC1025C4F20205DD
:1011C000AC4500F098802825C4F20205AC4500F03B
:1011D00092804025C4F202058AE000BF45F22F4507
:1011E000C5F60205AC452DDC40F2B745C4F2020558
:1011F000AC454BDC40F27045C4F20205AC457AD0F8
:1012000040F28845C4F20205AC4574D040F2A045D6
:10121000C4F202056CE000BF40F22745C4F20205AB
:10122000AC4543DCA025C4F20205AC4563D0B8252B
:10123000C4F20205AC455ED040F21045C4F202058E
:1012400056E000BF45F26B45C5F60205AC453FDCF4
:1012500045F23045C5F60205AC454CD045F2444553
:10126000C5F60205AC4546D045F258453EE000BF04
:101270005825C4F20205AC453DD07025C4F20205E4
:10128000AC4538D08825C4F2020531E040F2B845BB
:10129000C4F20205AC452ED045F20845C5F602055C
:1012A000AC4528D045F21C4520E000BF40F228455F
:1012B000C4F20205AC451ED040F24045C4F202051E
:1012C000AC4518D040F25845C4F2020510E000BF0A
:1012D00045F26C45C5F60205AC450CD045F2944587
:1012E000C5F60205AC4506D045F28045C5F60205B7
:1012F000AC4540F0D080456EC66E002E866E6E60A6
:101300001CBFD0E91C566E60A44515DC9F24C4F2B6
:101310000204A4452CDC5724C4F20204A44551DC89
:101320001024C4F20204A4457AD02824C4F2020492
:10133000A44575D040246FE045F22F44C5F6020461
:10134000A44529DC40F2B744C4F20204A44545DCBC
:1013500040F27044C4F20204A44561D040F28844D3
:10136000C4F20204A4455BD040F2A04454E000BFA4
:1013700040F22744C4F20204A4453FDCA024C4F296
:101380000204A4454CD0B824C4F20204A44547D0BA
:1013900040F2104440E000BF45F26B44C5F6020441
:1013A000A44555DC45F23044C5F60204A44561D09D
:1013B00045F24444C5F60204A4455BD045F25844C6
:1013C00054E000BF5824C4F20204A44528D070247D
:1013D000C4F20204A44523D088241DE040F2B8449E
:1013E000C4F20204A4451BD045F20844C5F6020429
:1013F000A4453FD045F21C4438E000BF40F22844E9
:10140000C4F20204A4450BD040F24044C4F20204EA
:10141000A44505D040F25844C4F20204A4453AD190
:101420008468C06D00F01F003F2505FA00F0CEF87B
:101430000800DCF80000402C20F48020CCF80000EC
:10144000CCF8043023D1CCF80820CCF80C1070BDB7
:1014500045F26C44C5F60204A4450BD045F2804425
:10146000C5F60204A44505D045F29444C5F602042D
:10147000A44510D1C46D012504F01F04806805FA4D
:1014800004F4CEF804404028CCF80430DBD0CCF88B
:101490000810CCF80C2070BD704700000000000060
:1014A0004FF4006002F078BBEFF3108072B600BF1B
:1014B000FEE700000000000044F60400C5F602004C
:1014C000816841F0020181600168890409D40168E2
:1014D00089045CBF01685FEA814102D40168890424
:1014E000F2D57047000000000A68002A02681FD089
:1014F00022F4F842D1E9073C1A434B6A42EA0C0253
:101500001A430260426847F6FF739A43D1E9013CEF
:101510001A43CB6842EA0C02D1F810C01A434B6957
:1015200042EA0C0289691A43114341600020704766
:1015300047F6FF739A43D1E9013C1A43CB6842EA6C
:101540000C02D1F810C01A434B6942EA0C02D1F8E0
:1015500018C01A43CB6942EA0C02D1F820C01A43E2
:10156000496A42EA0C021143016000207047000002
:101570000246406943F6FE7320EA0303002043EA73
:10158000410151617047000010B5024600696FF3D8
:1015900015006FF01F04D1E900ECD1E9023140EAF7
:1015A0000E0004EB431340EA0C000343002043EA1F
:1015B0004121116110BD00002DE9F041002A82682F
:1015C00036D040F6FF734FF20006CFF60F73CFF61A
:1015D000FF761A40CB684F696FF00F0406EB0333B8
:1015E0000026CFF6F0761A4306EB07573A4382609F
:1015F000C2688E68D1E9003702F07042013B04EB0B
:1016000007176FF0FF040D6904EB062600241A4348
:10161000CFF6FF7489693A4304EB0545013932433B
:101620002A4342EA0161C1600020BDE8F08100BFA9
:1016300001F1080602F0704CD1E900E278CE6FF0BB
:101640000F074FF2000807EB02126FF0FF0707EBDE
:101650000323AEF1010747EA0C07CFF6FF7840F20B
:10166000000E3A4308EB0434CFF6FF7E00271A43FE
:1016700089690EEB0545CFF6F077224307EB065359
:1016800001392A431A4342EA016181600020BDE822
:10169000F08100000000000070B582B000230193CB
:1016A000044690F85000012802D1022002B070BD1B
:1016B000012084F8500020460E461546FFF734FC02
:1016C000616D18B141F010014CE000BF41F202120F
:1016D0004FF6C0739143C3F6FE7302316165216812
:1016E00006F4803605F080458A682E4413404FF298
:1016F000FF72C2F2C352334403F100438B608B6824
:10170000B3F1FF3F2ADC019B01330193019B93421C
:101710001DD88B68B3F1FF3F20DC019B013301939F
:10172000019B934213D88B68B3F1FF3F16DC019BFA
:1017300001330193019B934209D88B68B3F1FF3FBA
:101740000CDC019B01330193019B9342D7D9606D5F
:1017500040F0100020F00201012003E0616D012241
:1017600062F301016165002184F8501002B070BD80
:1017700090F85020012A01D102207047B0B582B004
:1017800042F2083200230193C4F202020093A2F550
:1017900042740368A34227D14FF6006C4FF6005500
:1017A000CFF6FF7CCFF6FF7552F80C405359234318
:1017B0005B0719D4D1F800E01368BEF1000F23F4E1
:1017C00040441FD04B6823431360535952F80C50C8
:1017D0002B43DB0722D1136840F61F75AB438968A2
:1017E000194341EA0E0118E0416D41F020014165C5
:1017F0000121002280F8502002B0BDE8B040084628
:10180000704700BF1460515952F80C301943C90792
:1018100004D1116840F61F73994311600021E8E775
:10182000F0B581B00022009290F85020012A03D137
:101830000221084601B0F0BD0768012380F850304E
:10184000BB685B0700F196810C684FF6FF7CB4F132
:10185000FF3FC0F20F0C4FEA94630FDD94FAA4F23D
:1018600014EA0C0FB2FA82F208BFA20E012402F0B1
:101870001F0204FA02F2FC692243FA614A681F2639
:1018800003F01F03C2F3012402F01F02964007EB8E
:10189000840403FA02F2256B25EA0606324322632A
:1018A000BA68BB6802F0040203F00803D21840F0E3
:1018B00096800A6807258E68C2F34063C2F304521B
:1018C00007EB830395405C6906FA02F224EA0505FA
:1018D0002A435A6141F20002C5F60042126802F042
:1018E0007042B2F1805F33D14A69FB680E2606EA86
:1018F000530302FA03F30C69042C39D007F1600298
:101900000E6806F0F84652F82450334305F00045BF
:101910002B4342F824300B694E7E52F82350012E9F
:1019200025F0004508BF05F1004542F823500A7E26
:101930000B693E69013A03F01F03B2FA82F226F402
:10194000F0465209D2029A4032433A6147E000BF62
:10195000FA684B69FE68D2064FEA560402D404F0D6
:101960000E0201E004F0080293400C69042CC5D17A
:101970003A6E0B6802F0F8429B069A4218D13A6E12
:1019800022F000423A667A6E02F0F8429A4214D08F
:10199000BA6E02F0F8429A4218D1BA6E22F00042B2
:1019A000BA66FA6E02F0F8429A4214D017E000BF0D
:1019B0007A6E02F0F8429A42EAD17A6E22F0004240
:1019C0007A66BA6E02F0F8429A42E6D0FA6E02F0F7
:1019D000F8429A4203D1FA6E22F00042FA66BA68DF
:1019E000D20779D1D1F800E00023C968D7F8C02028
:1019F0000EEA0C04C4F25273A24301F018042CFA4C
:101A000004F603F52D0506EA0E06A94246EA020190
:101A1000C7F8C0105DD142F20011C4F202018F423A
:101A200026D042F20001C4F202018F423CD11F21B4
:101A3000C1F2F0418E4540F3C38040F2FF71C2F61F
:101A400030618E4540F3A98040F60001C2F6306156
:101A50008E4500F0478141F20001C3F260218E45BE
:101A600000F036810021C4F221318E451DD045E1C0
:101A70001F21C1F2F0418E4500F388800721C0F696
:101A800090418E4500F3AA800221C0F230418E457C
:101A900000F0A1800421C0F660018E4540F02E8147
:101AA0004023C1F6201300E0002393FAA3F143F68C
:101AB000C132B1FA81F1C0F20A0213424FF00102C1
:101AC00008BF990E01F01F0102FA01F1FA691143F2
:101AD000F961BEF1FF3F01DD002150E042F200015B
:101AE00046F2083CC4F20201C5F6020C01F5807210
:101AF00001F542739742624608BF1A468F4242F28E
:101B0000001408BF1A4647F48073C4F20204A342CB
:101B1000136827D18A68D1F808111143C90729D160
:101B2000002103F0E074CCF684318E4508BF13F435
:101B3000000163D00021CCF252718E4540F0A080AC
:101B40000021B1EB146F40F09B80ACF542718F42E5
:101B5000C2D1DCF8001021F0E071214341F0807126
:101B6000A5E000BF4FF60051CFF6FF715CF8011001
:101B7000C907D5D0416D41F0200141650121002206
:101B800080F85020084601B0F0BD00BF40F2FF7160
:101B9000C2F630618E4500F38F802021C1F2F04102
:101BA0008E4500F0A58040F20041C2F600218E452E
:101BB00040F0A48040F60003C2F6306375E700BF32
:101BC0000721C0F690418E4508DC0221C0F2304169
:101BD0008E457FF45FAF012367E700BF0821C0F6A1
:101BE00090418E457AD01021C1F2C0018E4540F05F
:101BF000858040F20013C2F2801356E7ACF54271C3
:101C00008F427FF469AFDCF8001042F6635221F096
:101C1000E071C0F23E52214341F40001CCF80010C3
:101C200040F20801C2F2004109688909A1FB0212D1
:101C30009109022202EB41010091009900293FF431
:101C40004BAF009901390091009900293FF444AF4E
:101C5000009901390091009900293FF43DAF0099A6
:101C600001390091009900293FF436AF00990139FC
:101C70000091009900294FF00001E2D17FE700BFF9
:101C8000ACF542718F424FF000017FF478AF002233
:101C9000CCF6B872964508BF13F480027FF46FAF9C
:101CA000DCF8001021F0E071214341F48001CCF810
:101CB0000010002163E700BF40F60001C2F630616A
:101CC0008E450FD041F20001C3F260218E4515D13F
:101CD00042F20003C3F29063E7E600BF8023C1F63F
:101CE0005053E2E641F20003C3F26023DDE600BF99
:101CF00040F20023C2F2B053D7E600BF0021002318
:101D0000C4F684318E4504BF0023C4F6B873CCE614
:101D100042F200010068C4F20201884218BF704715
:101D200040F200014FF4C040CCF2000101220A54FD
:101D30007047000000000000704700000000000035
:101D4000704700000000000070B582B00446002813
:101D50004FF0000001902DD0606D30B9204600F0AA
:101D60001FF90020A06584F8500020688168890070
:101D70004FF6C071C5F6FF7102D582680A408260D5
:101D80008268D20031D4826801F18051114042F65C
:101D9000635241F08051816040F20801C0F23E522E
:101DA000C2F2004109688909A1FB0212012101EB7D
:101DB000921105E00126304602B070BD019901394B
:101DC0000191019989B1019901390191019961B19B
:101DD000019901390191019900291FBF0199013928
:101DE0000191019918BF0029E8D18168C90009D47F
:101DF000616D012641F010016165A16D41F00101A5
:101E0000A16500E000268168626D02F0100201F019
:101E100004018918616D40F0918021F481710231D3
:101E200061658168C90728D142F2001240F48071CF
:101E3000C4F20202914242F20001C4F2020140F0F7
:101E4000A5808A68D1F808311A43D20715D101F567
:101E5000807201F5427346F2080C9042C5F6020CFE
:101E60001A4618BF0CF54072884208BF1A466068CF
:101E7000116821F47C110843106001F075FF41F2F4
:101E8000030100228842A068A0F1100188BF01224E
:101E9000B1FA81F1237F49091140226B617D15461A
:101EA00016BF4D034A031C20012B45EA034141EABA
:101EB000020141EA000106D1206A0022CFF6FE723B
:101EC00002EB40400143606A20B100F47870A26ADE
:101ED0001043014320684CF20303CFF6F073C2684D
:101EE0001A401143C1608168826801F0040102F068
:101EF0000802891836D1217D44F20305E26AC368DD
:101F000042EA813123EA05021143C16094F8381096
:101F1000012901691AD14FF61E020125CFF60042B0
:101F2000CFF6FF751140D4E90F231943636C05EB1D
:101F300002421143A26C1943114309E041F0100021
:101F400001266065304602B070BD00BF21F001017E
:101F500001610169626B21F070411143016120460A
:101F6000FEF70AFF2068E1680129026B22F00F01E9
:101F700002D1A269013A114301630121606D61F34D
:101F800001006065304602B070BD00BF46F2080235
:101F9000C5F602021268D2073FF459AF6DE70000A0
:101FA00070B586B042F2000104460068C4F2020136
:101FB00000268842CDE9046603960296019601D078
:101FC00006B070BD44F2D840C5F60200016841F089
:101FD00020010160016801F02001009100998168F1
:101FE00041F001018160806801A900F001000090CA
:101FF0000098402001900320CDE902060020C5F69C
:10200000020001F0D5FD40F2E8151020C2F20045B3
:10201000C4F2020028600920C5E901064FF480607F
:1020200028614FF4006068614FF40050A8614FF4DC
:102030008070EE60C5E9070628466E6201F08CF8F4
:1020400008B1FFF731FAE564AC6306B070BD00007B
:102050002DE9F04142F2001646F20834C4F20206BD
:10206000076806F50275C5F60204A6F58073B74247
:1020700008BF2C469F4208BF2C462368BF687F07D5
:1020800003D490F85070012F02D10220BDE8F081F6
:1020900003F01F070123092F80F850305AD8BB40A6
:1020A00040F221252B4255D00D4690460446FEF7BE
:1020B00077FF28B1002084F850000120BDE8F081AE
:1020C0002168606D40F601732246984300F58070E8
:1020D00060650FB1B14203D0506D20F4801050659F
:1020E000506D40F6A967C0044FF0000044BF906DEA
:1020F00020F0060040F62176C0F600079065C0F695
:102100000006D06C00231446C0E90F7640F609772C
:10211000D66AC0F60007C7641C270F6082F85030EB
:102120002A464B6843F010034B60CB6823F003034F
:102130003343CB604031434601F03EFB21684FF60C
:10214000C073C7F6FF738A681A4004328A60BDE81C
:10215000F08100BF002180F850100120BDE8F0811F
:102160002DE9F041044601F007FE1CB3054694F842
:102170003500022822D140F20F472668C4F2020738
:1021800040F26F48BE426FF00E00C4F202081DDC40
:102190006F21C4F202018E422ADC3F21C4F2020107
:1021A0008E4241DC1021C4F202018E4263D028210C
:1021B0005CE000BF0120BDE8F08100BF80206065C9
:1021C0000120002184F83410BDE8F08146451BDC75
:1021D00040F23F41C4F202018E422DDC40F2104138
:1021E000C4F202018E4246D040F228413EE000BFD8
:1021F0009F21C4F202018E4228DC7021C4F2020148
:102200008E4238D0882131E040F29F41C4F2020171
:102210008E4223DC40F27041C4F202018E422AD089
:1022200040F2884122E000BF4021C4F202018E4208
:1022300021D058211AE000BF40F24041C4F202010F
:102240008E4218D040F2584110E000BFA021C4F2E5
:1022500002018E420FD0B82108E000BF40F2B84121
:10226000C4F202018E4206D040F2A041C4F2020143
:102270008E42314607D13146306820F01E0041F8C9
:10228000140B6FF080000A68464500EA02000860FF
:102290001ADC9F20C4F20200864233DC5720C4F2CD
:1022A000020086425ADC1020C4F20200864200F08E
:1022B00097802820C4F20200864200F091804020DE
:1022C000C4F202008AE000BF45F22F40C5F60200CA
:1022D00086422DDC40F2B740C4F2020086424BDC5D
:1022E00040F27040C4F20200864279D040F2884049
:1022F000C4F20200864273D040F2A040C4F2020051
:102300006CE000BF40F22740C4F20200864243DC8A
:10231000A020C4F20200864262D0B820C4F20200BB
:1023200086425DD040F21040C4F2020056E000BF89
:1023300045F26B40C5F6020086423FDC45F2304074
:10234000C5F6020086424BD045F24440C5F6020075
:10235000864245D045F258403EE000BF5820C4F2C6
:10236000020086423CD07020C4F20200864237D080
:102370008820C4F2020031E040F2B840C4F202000A
:1023800086422DD045F20840C5F60200864227D08D
:1023900045F21C4020E000BF40F22840C4F2020099
:1023A00086421DD040F24040C4F20200864217D05F
:1023B00040F25840C4F2020010E000BF45F26C4009
:1023C000C5F6020086420BD045F29440C5F60200E5
:1023D000864205D045F28040C5F60200864204D10F
:1023E000206E016821F480710160306820F00100E6
:1023F000306000BF3068C00710D001F0BDFC401B4A
:102400000628F7D320206065032084F835000120DA
:10241000002184F83410BDE8F08100BF2068082155
:10242000B8424FF03F0211DC6F23C4F2020398421E
:102430001EDC3F23C4F20203984235DC1023C4F2B1
:102440000203984257D0282350E000BF40451BDCD0
:1024500040F23F43C4F2020398422DDC40F21043A5
:10246000C4F20203984246D040F228433EE000BF47
:102470009F23C4F20203984228DC7023C4F20203B3
:10248000984238D0882331E040F29F43C4F20203DF
:10249000984223DC40F27043C4F2020398422AD0EF
:1024A00040F2884322E000BF4023C4F20203984276
:1024B00021D058231AE000BF40F24043C4F2020387
:1024C000984218D040F2584310E000BFA023C4F255
:1024D000020398420FD0B82308E000BF40F2A043A7
:1024E000C4F20203984206D040F2B843C4F2020399
:1024F000984240F0C580D4E9163707F01F074045E1
:1025000002FA07F25A5019DC9F21C4F202018842F4
:1025100032DC5721C4F20201884259DC1021C4F296
:102520000201884200F096802821C4F2020188420C
:1025300000F090804021C4F2020189E045F22F4171
:10254000C5F6020188422DDC40F2B741C4F2020117
:1025500088424BDC40F27041C4F20201884279D0DB
:1025600040F28841C4F20201884273D040F2A04197
:10257000C4F202016CE000BF40F22741C4F2020144
:10258000884243DCA021C4F20201884262D0B82113
:10259000C4F2020188425DD040F21041C4F202014F
:1025A00056E000BF45F26B41C5F6020188423FDCB0
:1025B00045F23041C5F6020188424BD045F2444114
:1025C000C5F60201884245D045F258413EE000BFC1
:1025D0005821C4F2020188423CD07021C4F20201A9
:1025E000884237D08821C4F2020131E040F2B8417C
:1025F000C4F2020188422DD045F20841C5F602011D
:10260000884227D045F21C4120E000BF40F228411B
:10261000C4F2020188421DD040F24041C4F20201DE
:10262000884217D040F25841C4F2020110E000BFC6
:1026300045F26C41C5F6020188420BD045F2944147
:10264000C5F60201884205D045F28041C5F6020177
:1026500088420BD1616EA26EE06E4A6030B10168B3
:1026600021F480710160D4E91C014160012084F8EB
:1026700035000020002184F83410BDE8F08100BF4F
:102680000421012237E70000F0B190F8351002294B
:1026900018D180B540F20F420168C4F202029142A3
:1026A00014DC6F23C4F20203994225DC3F23C4F2F9
:1026B000020399423CDC1023C4F2020399425DD02C
:1026C000282357E0802141650120704740F26F4385
:1026D000C4F2020399421BDC40F23F43C4F20203FE
:1026E00099422DDC40F21043C4F20203994245D0D6
:1026F00040F228433EE000BF9F23C4F20203994208
:1027000028DC7023C4F20203994237D0882331E0D9
:1027100040F29F43C4F20203994223DC40F270432B
:10272000C4F20203994229D040F2884322E000BF5C
:102730004023C4F20203994220D058231AE000BF7C
:1027400040F24043C4F20203994217D040F258438A
:1027500010E000BFA023C4F2020399420ED0B823B8
:1027600008E000BF40F2B843C4F20203994205D02A
:1027700040F2A043C4F20203994275D191424FF056
:10278000040280F8352011DC6F20C4F2020081427F
:1027900022DC3F20C4F20200814239DC1020C4F266
:1027A0000200814259D0282054E000BF40F26F401F
:1027B000C4F2020081421BDC40F23F40C4F202003E
:1027C00081422DDC40F21040C4F20200814244D02C
:1027D00040F228403EE000BF9F20C4F20200814248
:1027E00028DC7020C4F20200814236D0882031E01B
:1027F00040F29F40C4F20200814223DC40F270406C
:10280000C4F20200814228D040F2884022E000BF9A
:102810004020C4F2020081421FD058201AE000BFBD
:1028200040F24040C4F20200814216D040F25840CB
:1028300010E000BFA020C4F2020081420DD0B820F9
:1028400008E000BF40F2B840C4F20200814204D068
:1028500040F2A040C4F202008142086820F001006A
:102860000860002080BD00BF0A6822F00E020A60E6
:1028700045F25742C5F6020291420A6822F001026F
:102880000A600FDC45F22F42C5F60202914219DCC4
:1028900045F20842C5F60202914229D045F21C4297
:1028A00022E000BF45F27F42C5F60202914213DCEE
:1028B00045F25842C5F60202914219D045F26C42E7
:1028C00012E000BF45F23042C5F6020291420FD03D
:1028D00045F2444208E000BF45F29442C5F60202C8
:1028E000914205D045F28042C5F6020291421AD1CA
:1028F000D0E9181CD0E916E30A6822F480720A6055
:1029000003F01F01012202FA01F1CEF80410816EDA
:10291000CCF80410C16E31B10A6822F480720A60EA
:10292000D0E91C124A60012180F83510016D0022A7
:10293000002980F8342094D08847002080BD000012
:102940002DE9F04782B00021019140F2080148F2E0
:10295000B513C2F20041C1F64E33856D40F26F49A6
:102960000A680168C4F202092E68A2FB03284945DF
:102970002A6815DC9F22C4F2020291422CDC572205
:10298000C4F20202914251DC1022C4F202029142CE
:102990007BD02822C4F20202914276D040226FE01E
:1029A00045F22F43C5F60203994229DC40F2B743B2
:1029B000C4F20203994245DC40F27042C4F20202C2
:1029C000914262D040F28842C4F2020291425CD04D
:1029D00040F2A04254E000BF40F22742C4F202029B
:1029E00091423FDCA022C4F2020291424DD0B822B3
:1029F000C4F20202914248D040F2104240E000BFCF
:102A000045F26B43C5F60203994275DC45F230434B
:102A1000C5F60203994200F0828045F24443C5F6B0
:102A2000020399427BD045F2584373E05822C4F226
:102A30000202914229D07022C4F20202914224D0B3
:102A400088221DE040F2B843C4F2020399421CD030
:102A500045F20843C5F60203994260D045F21C4393
:102A600058E000BF40F22842C4F2020291420CD06A
:102A700040F24042C4F20202914206D040F2584273
:102A8000C4F20202914240F05383C26D082302F067
:102A90001F0240F20F4A9340C4F2020A334200F090
:102AA000DE8051454FF0040412DC6F27C4F20207A8
:102AB000B9426DDC3F27C4F20207B94200F39C80A3
:102AC0001027C4F20207B94200F0BD802827B5E004
:102AD000494569DC40F23F47C4F20207B94200F3BE
:102AE000938040F21047C4F20207B94200F0AB8075
:102AF00040F22847A2E000BF45F26C43C5F602034E
:102B000099420CD045F28043C5F60203994206D0A3
:102B100045F29443C5F60203994240F009830B68DD
:102B2000C76D07F01F070426BE40164218BF13F0FA
:102B3000040423D10226BE40164218BF13F002043B
:102B400042D1FA40120740F1F38213F0080200F07C
:102B5000EF820A6822F00E020A60012101FA07F2F0
:102B60006A60416580F83510C16C00294FF00002A1
:102B700080F8342040F0D882DAE200BF1A046E6098
:102B800034D49A0636D40A6822F004020A6031E08E
:102B90009F27C4F20207B94240DC7027C4F2020743
:102BA000B94250D0882749E040F29F47C4F202075B
:102BB000B9423BDC40F27047C4F20207B94242D04E
:102BC00040F288473AE000BF1A046E6000F1B48218
:102BD0009A0600F1B5820A6822F00A020A60012111
:102BE00080F83510002180F83410A9E2D90301D40F
:102BF000816C98E2016C96E24027C4F20207B94268
:102C000021D058271AE000BF40F24047C4F2020723
:102C1000B94218D040F2584710E000BFA027C4F2D4
:102C20000207B9420FD0B82708E000BF40F2A04722
:102C3000C4F20207B94206D040F2B847C4F2020714
:102C4000B94218BF08240F68274208D00F6827F040
:102C500004070F60AB60436D43F00103436501233C
:102C6000934033426FD0514510DC6F27C4F2020706
:102C7000B9421DDC3F27C4F20207B94234DC1027F9
:102C8000C4F20207B94256D028274FE049451BDC61
:102C900040F23F47C4F20207B9422DDC40F2104730
:102CA000C4F20207B94246D040F228473EE000BFD6
:102CB0009F27C4F20207B94228DC7027C4F202073A
:102CC000B94238D0882731E040F29F47C4F202076A
:102CD000B94223DC40F27047C4F20207B9422AD05D
:102CE00040F2884722E000BF4027C4F20207B94201
:102CF00021D058271AE000BF40F24047C4F2020733
:102D0000B94218D040F2584710E000BFA027C4F2E3
:102D10000207B9420FD0B82708E000BF40F2A04731
:102D2000C4F20207B94206D040F2B847C4F2020723
:102D3000B94240F007824F693F0604D5AB60436D4E
:102D400043F0020343650423934033426FD051455F
:102D500010DC6F27C4F20207B9421DDC3F27C4F222
:102D60000207B94234DC1027C4F20207B94256D038
:102D700028274FE049451BDC40F23F47C4F20207D9
:102D8000B9422DDC40F21047C4F20207B94246D0E6
:102D900040F228473EE000BF9F27C4F20207B94235
:102DA00028DC7027C4F20207B94238D0882731E006
:102DB00040F29F47C4F20207B94223DC40F2704759
:102DC000C4F20207B9422AD040F2884722E000BF8D
:102DD0004027C4F20207B94221D058271AE000BFA9
:102DE00040F24047C4F20207B94218D040F25847B7
:102DF00010E000BFA027C4F20207B9420FD0B827E5
:102E000008E000BF40F2A047C4F20207B94206D072
:102E100040F2B847C4F20207B94240F09B810F6804
:102E2000BF0704D5AB60436D43F004034365102333
:102E300003FA02F2324200F0828051454FF008035B
:102E400010DC6F27C4F20207B9421DDC3F27C4F231
:102E50000207B94234DC1027C4F20207B94256D047
:102E600028274FE049451BDC40F23F47C4F20207E8
:102E7000B9422DDC40F21047C4F20207B94246D0F5
:102E800040F228473EE000BF9F27C4F20207B94244
:102E900028DC7027C4F20207B94238D0882731E015
:102EA00040F29F47C4F20207B94223DC40F2704768
:102EB000C4F20207B9422AD040F2884722E000BF9C
:102EC0004027C4F20207B94221D058271AE000BFB8
:102ED00040F24047C4F20207B94218D040F25847C6
:102EE00010E000BFA027C4F20207B9420FD0B827F4
:102EF00008E000BF40F2A047C4F20207B94206D082
:102F000040F2B847C4F20207B94218BF04230F6861
:102F10001F4214D0AA600A6852030A6808D4D20576
:102F200008D40A6822F008020A60016C21B906E0A0
:102F3000110351D4016C11B1044688472046C16D7C
:102F400001F01F02202101FA02F3334200F0AF80AA
:102F500001681027514511DC6F26C4F20206B14208
:102F60001EDC3F26C4F20206B14239DC1026C4F250
:102F70000206B1425BD0282654E000BF49451BDC65
:102F800040F23F46C4F20206B14231DC40F2104644
:102F9000C4F20206B1424AD040F2284642E000BFE5
:102FA0009F26C4F20206B1422CDC7026C4F202064F
:102FB000B1423CD0882635E040F29F46C4F202067A
:102FC000B14227DC40F27046C4F20206B1422ED074
:102FD00040F2884626E000BF816C0029ACD1AEE704
:102FE0004026C4F20206B14221D058261AE000BFA2
:102FF00040F24046C4F20206B14218D040F25846B0
:1030000010E000BFA026C4F20206B1420FD0B826DD
:1030100008E000BF40F2A046C4F20206B14206D06A
:1030200040F2B846C4F20206B14218BF02270E6849
:103030003E423CD0AB6090F83530042B0B681DD17C
:1030400023F016030B604B6923F080034B61036C84
:103050000BB9836C1BB10B6823F008030B603F2195
:103060009140A960012180F83510016D00294FF0D1
:10307000000280F8342057D15AE000BF5A030A6892
:103080000CD4D2050ED40A6822F010020A60012185
:1030900080F83510002180F8341003E0110301D4CA
:1030A000416C00E0C16B11B1044688472046416D78
:1030B00000293DD0416DC90734D0042180F8351076
:1030C00001684FEA98220B6823F001030B60019B13
:1030D0000133019393421AD80B68DB0717D0019B89
:1030E00001330193934212D80B68DB070FD0019B89
:1030F0000133019393420AD80B68DB0707D0019B89
:1031000001330193934202D80B68DB07DFD10968D2
:10311000C9074FF0030108BF012180F835100021D5
:1031200080F83410C16C19B102B0BDE8F04708470F
:1031300002B0BDE8F08700BFD90301D4416CF2E7CB
:10314000C16BF0E70B680423934033427FF4FFAD7B
:103150006DE600BF0B686AE62DE9F041044600F019
:103160000BFEFCB140F26F4805462068C4F202082D
:1031700040451BDC9F21C4F20201884232DC57210A
:10318000C4F20201884259DC1021C4F202018842D3
:1031900000F083802821C4F20201884200F07D8083
:1031A000402175E00120BDE8F08100BF45F22F41CC
:1031B000C5F60201884229DC40F2B741C4F202019F
:1031C000884247DC40F27041C4F20201884264D078
:1031D00040F28841C4F2020188425ED040F2A04130
:1031E00056E000BF40F22741C4F20201884241DCB0
:1031F000A021C4F2020188424FD0B821C4F20201DA
:1032000088424AD040F2104142E000BF45F26B4193
:10321000C5F60201884200F3B38045F23041C5F69D
:103220000201884200F0BF8045F24441C5F6020128
:10323000884200F0B88045F25841AFE05821C4F20E
:103240000201884229D07021C4F20201884224D0B0
:1032500088211DE040F2B841C4F2020188421CD02E
:1032600045F20841C5F60201884200F09C8045F213
:103270001C4193E040F22841C4F2020188420CD084
:1032800040F24041C4F20201884206D040F2584167
:10329000C4F20201884240F01B81022184F83510FB
:1032A000002184F83410016821F00101016000BFA1
:1032B00020680168C9070DD000F05EFD401B06289C
:1032C000F6D320206065032084F835000120BDE896
:1032D000F08100BF48F23F0204F108060168CFF612
:1032E0001062114065694CCE1143A2691943E3692C
:1032F0003143266A0D43616A2B43042943EA0603DE
:1033000043EA020303D1D4E90B652E43334341F270
:103310000006C5F600463668B6F1005F0FD3656853
:10332000A5F129061F2E00F235820127B7403F265E
:10333000CCF2C036374200F02D8243F48013036094
:103340000429436923F0070341EA030140F0DC80CC
:10335000D4E90A53002B41EA050100F0D580B2F50B
:10336000005F00F0B780002A40F0C080022D00F01E
:10337000C080012D00F0B480002D00F0BA80C3E0C1
:1033800045F26C41C5F6020188420CD045F28041FD
:10339000C5F60201884206D045F29441C5F6020105
:1033A000884240F0958004F1080E022184F835101F
:1033B000002184F834100168A3699EE80450A2F14A
:1033C0008005E769B5FA85F566696D09402A4FEA17
:1033D000853543EA07026FF3101142EA060208BF7F
:1033E000102541EADC0142EA0E02236A294341EA40
:1033F000D20141EA131140F80819C0B2CD21484367
:103400003C2101EA9020E0652046FDF72DFEE16DAC
:10341000012201F01F0102FA01F1416020684045DC
:1034200000F381809F21C4F20201884214DC5721FD
:10343000C4F20201884227DC1021C4F20201884252
:1034400000F0C7802821C4F20201884200F0C18048
:103450004021C4F20201B9E040F22741C4F2020166
:10346000884221DCA021C4F20201884200F0B18030
:10347000B821C4F20201884200F0AB8040F2104152
:10348000C4F20201A2E000BF5821C4F20201884246
:1034900000F09F807021C4F20201884200F0998000
:1034A0008821C4F2020191E040F22841C4F20201F5
:1034B000884200F08E8040F24041C4F2020188420E
:1034C00000F0878040F25841C4F202017EE000BF64
:1034D0004020F7E6032D17D8DFE805F00E0B0E02AB
:1034E000A3F1C072B2FA82F2520904E0032D03D3B1
:1034F0000AD1C3F300623AB140206065012084F82C
:103500003500BDE8F08100BF41612046FDF7ACFD0C
:10351000E16D3F2201F01F0102FA01F18160206894
:1035200040457FF77FAF45F22F41C5F60201884243
:1035300016DC40F2B741C4F20201884226DC40F2B8
:103540007041C4F20201884243D040F28841C4F283
:10355000020188423DD040F2A041C4F2020135E0B0
:1035600045F26B41C5F6020188421FDC45F230414D
:10357000C5F6020188422CD045F24441C5F602014D
:10358000884226D045F258411EE000BF40F2B841C3
:10359000C4F2020188421CD045F20841C5F602017E
:1035A000884216D045F21C410EE000BF45F26C4146
:1035B000C5F6020188420CD045F29441C5F60201DD
:1035C000884206D045F28041C5F60201884240F0AB
:1035D000D98045F2574C45F6FC0EC5F6020CC5F6EF
:1035E000020E60450EDC45F22F41C5F6020188420D
:1035F00018DC45F20841C5F60201884228D045F2A0
:103600001C4121E045F27F41C5F60201884213DCEE
:1036100045F25841C5F60201884219D045F26C4185
:1036200012E000BF45F23041C5F6020188420FD0DA
:1036300045F2444108E000BF45F29441C5F602015D
:10364000884205D045F28041C5F60201884247D143
:1036500000F0FC014CF6CD420839CCF6CC42A1FB7F
:103660000212AEF1FC05AEF17C061309A26803F06C
:103670001F01802A4FF0010205EB8305256602FA3F
:1036800001F26666A26605D1002060602860726063
:103690001EE000BF6368D9B25F1E072F2960726009
:1036A00016D84E1E082E19D260450EF1440237DCA2
:1036B00045F22F41C5F60201884241DC45F208413E
:1036C000C5F60201884251D045F21C414AE000BFD4
:1036D00000206067C4E91B0054E000BFE06E4CE0CE
:1036E00000F0F8014AF6AB221039CAF6AA22A1FB73
:1036F000021240F20F43C4F2020308251109984256
:1037000003F1AA060B4688BF05EB121340F600052D
:10371000B042C4F2020505F1800628BF0B46A5E7BA
:1037200045F27F41C5F60201884213DC45F258415B
:10373000C5F60201884219D045F26C4112E000BF83
:1037400045F23041C5F6020188420FD045F24441AE
:1037500008E000BF45F28041C5F60201884205D06D
:1037600045F29441C5F6020188421BD10EEB83005D
:103770000121E066B1402267616700210160D4E960
:103780001C01416000206065012184F83510BDE80E
:10379000F08100BFA5F14F07042F38BF43F4801319
:1037A000CDE500BF40F60000C4F2020000F1FC0EBF
:1037B00000F5A072DAE7000030B110B590F834409F
:1037C000012C03D1022010BD01207047012480F894
:1037D000344090F83540012C2CD1022480F835403B
:1037E00000244465D0F800C0DCF8004024F0010457
:1037F000CCF800400446FDF7CBFC40F20F4C2068AB
:10380000C4F2020C40F26F416045C4F2020119DCBF
:103810006F23C4F20203984226DC3F23C4F2020362
:1038200098423DDC1023C4F2020398425FD0282363
:1038300058E000BF4FF400614165002180F834106A
:10384000012010BD88421BDC40F23F43C4F202035A
:1038500098422DDC40F21043C4F20203984246D055
:1038600040F228433EE000BF9F23C4F20203984287
:1038700028DC7023C4F20203984238D0882331E058
:1038800040F29F43C4F20203984223DC40F27043AB
:10389000C4F2020398422AD040F2884322E000BFDB
:1038A0004023C4F20203984221D058231AE000BFFB
:1038B00040F24043C4F20203984218D040F2584309
:1038C00010E000BFA023C4F2020398420FD0B82337
:1038D00008E000BF40F2B843C4F20203984206D0A9
:1038E00040F2A043C4F20203984240F02F810368E3
:1038F0000B2262F344030360226C1AB108230268AE
:103900001A430260884219DC9F22C4F202029042EC
:1039100032DC5722C4F20202904259DC1022C4F277
:103920000202904200F096802822C4F202029042E5
:1039300000F090804022C4F2020289E045F22F425A
:10394000C5F6020290422DDC40F2B742C4F20202F8
:1039500090424BDC40F27042C4F20202904279D0B5
:1039600040F28842C4F20202904273D040F2A04278
:10397000C4F202026CE000BF40F22742C4F202022D
:10398000904243DCA022C4F20202904262D0B822EC
:10399000C4F2020290425DD040F21042C4F2020230
:1039A00056E000BF45F26B42C5F6020290423FDC92
:1039B00045F23042C5F6020290424BD045F24442F5
:1039C000C5F60202904245D045F258423EE000BFA3
:1039D0005822C4F2020290423CD07022C4F2020289
:1039E000904237D08822C4F2020231E040F2B8425D
:1039F000C4F2020290422DD045F20842C5F60202FE
:103A0000904227D045F21C4220E000BF40F22842FD
:103A1000C4F2020290421DD040F24042C4F20202BF
:103A2000904217D040F25842C4F2020210E000BFA8
:103A300045F26C42C5F6020290420BD045F2944228
:103A4000C5F60202904205D045F28042C5F6020258
:103A5000904274D1236E1A68D20303D51A6842F4D7
:103A600080721A60E36E1BB11A6842F480721A60A9
:103A7000604511DC6F21C4F2020188421EDC3F2147
:103A8000C4F20201884235DC1021C4F202018842EE
:103A900055D0282150E000BF88421BDC40F23F4156
:103AA000C4F2020188422DDC40F21041C4F202014E
:103AB000884244D040F228413EE000BF9F21C4F23A
:103AC0000201884228DC7021C4F20201884236D00B
:103AD000882131E040F29F41C4F20201884223DC98
:103AE00040F27041C4F20201884228D040F288417D
:103AF00022E000BF4021C4F2020188421FD05821B9
:103B00001AE000BF40F24041C4F20201884216D0E0
:103B100040F2584110E000BFA021C4F202018842E7
:103B20000DD0B82108E000BF40F2B841C4F2020154
:103B3000884204D040F2A041C4F2020188420168E8
:103B400041F001010160002010BD00BF02680523A3
:103B500063F343020260226C002A3FF4D3AE0423D5
:103B6000CDE6000000000000B0B5044600F004F906
:103B700040F200010546C2F20041621C097818BFFC
:103B80000C4400BF00F0F8F8401BA042FAD3B0BDCF
:103B900070470000000000008821C5F600010A6897
:103BA000024208BF70470860FFF7F2BF0000000044
:103BB0002DE9F04F83B00F68002F00F0C98000F1AD
:103BC000264642F2004506F1FF76C5F602050A22B6
:103BD000A8424FEAB62540F2040C08BF092200F1C2
:103BE00020030093092DC5F6000C38BF4FEAB6221A
:103BF000002400264FF0000801920AE008F10108B5
:103C00000F6837FA08F206F1020604F1040400F026
:103C10009F80012202FA08FE17EA0E09EED0D1F8C1
:103C200004B003220BF00307B2407D1E6FEA020AC4
:103C3000012D11D88268CD6802EA0A02B5402A43F4
:103C40008260CBF30015426822EA0E0205FA08F5FD
:103C50002A43426004E000BF032F01D103271FE085
:103C6000C2688D6802EA0A02B540022F42EA0502E4
:103C7000C26015D16FF0030204F01C0502EA580B74
:103C8000009A0F2352F80BE0AB400F692EEA0303B2
:103C9000AF403B4342F80B30D1F804B00BF00307C0
:103CA000026807FA06F302EA0A021BF4403F42EAFE
:103CB00003020260A2D044F2F44340F2084EC5F67B
:103CC0000203C5F6000E0F251A6842F002021A60C0
:103CD0001A6802F00202029228F00302029B04F02A
:103CE0000C0352F80E709D40AF43019D05FA03F39B
:103CF0003B4342F80E304FF0B04EDEF800204B68E8
:103D000042EA0907DD0258BF22EA09079D02CEF800
:103D10000070DCF8002042EA090758BF22EA0907D0
:103D20009D03CCF80070DCF8802042EA090758BFF8
:103D300022EA0907DB03CCF88070DCF87C2042EA39
:103D4000090758BF22EA0907CCF87C7056E700BF84
:103D500003B0BDE8F08F0000002A08BF09048161AC
:103D6000704700000000000041F20000C5F600406E
:103D70000068000C7047000040F24830C2F200407A
:103D8000006870470000000090F84120202A03D10D
:103D900090F84020012A01D102207047242280F8A7
:103DA00041200268136823F001031360136823F4B1
:103DB00080531360136819431160116841F00101C9
:103DC0001160202180F84110002180F8401000206F
:103DD000704700000000000090F84120202A03D125
:103DE00090F84020012A01D102207047242280F857
:103DF00041200268136823F001031360136823F461
:103E0000706343EA01211160116841F00101116002
:103E1000202180F84110002180F8401000207047D8
:103E200010B310B590F8411031B9002180F840105E
:103E3000044600F065F92046242180F8411090E8FE
:103E40001210C3680A68012B22F001020A6024F0F4
:103E500070620A618A6822F400428A6006D14CF4DA
:103E600000428A600CE000BF01207047022B4CF436
:103E700004428A6004D14A6842F4006203E000BF51
:103E80004A6822F400624A6000F1100C4A6842F06D
:103E9000007242F400424A60CA6822F40042CA60DA
:103EA0009CE81C101A4342EA0422CA60026A42EAF1
:103EB0000C020A600A6842F001020A6000214164B3
:103EC000202280F84120016380F84210002010BDBC
:103ED0002DE9F04F81B0044690F84100202807D129
:103EE0000A9F4FB10B9E3EB194F8400001280BD1C0
:103EF000022001B0BDE8F08F4FF400706064012033
:103F000001B0BDE8F08F00BF9A4691468B46012074
:103F100084F84000FFF730FF216805468A691204E3
:103F20004DD4212084F84100402084F842005FFAFB
:103F30008AF04FF000086FF39F2BC4F8448067624B
:103F400049F600476685CFF60047C4F83480A7F5E8
:103F500080634A684BEA00401A405E461044DDF830
:103F600030B040F080702A4640F40050486020464F
:103F7000594603F079F8C0B9BAF1010F206809D0A9
:103F80004FEA19218162204659462A4603F06CF80F
:103F900058B920685FFA89F18162802100222046A9
:103FA0005B46009502F0ACFF50B384F840800120DE
:103FB00001B0BDE8F08F00BF88690004B1D51921B8
:103FC00020462A4602F0ECFE002898D1FFF7D4FEE6
:103FD000401B21681A28EFD388690004ECD5606C77
:103FE00040F020006064202084F84100002084F824
:103FF000420084F84000012001B0BDE8F08F00BF0E
:10400000608D40F20009C0F2FF19B0F5807F07D340
:1040100020684B4650F8041F01EA070CFF2109E015
:10402000618D2068CAB250F8043F3B4043EA024C1D
:104030004FF0007343EA0C034FF0FF08324643EAA7
:1040400006020260218510E0618D20682185C9B2D9
:1040500050F8042F3A4042EA01414FF000721143F8
:10406000334631430160608D70B3204659462A467D
:1040700002F0FAFF00287FF442AF606A216810F86E
:10408000012B8A626062608D01386085208D013865
:104090002085618D0029E6D00004E4D18021002232
:1040A00020465B46009502F02BFF00287FF427AFE7
:1040B000608DB0F5807FC7D32068A4F828804A4679
:1040C00050F8041F3940CAE7204659462A4602F0F4
:1040D0008BFF00287FF413AF206820214EF60003E9
:1040E000C161CFF6006342681A40426084F8411013
:1040F000002084F8420084F8400001B0BDE8F08F51
:10410000B0B5B8B0044602A80830B82100253395F0
:10411000CDE93655CDE93455FCF72EFA45F200418C
:104120002068C4F20001884202D038B0B0BD00BFA0
:104130000820029002A8039500F09AFD08B1FDF74F
:10414000B3F944F2E04433A9C5F60204206840F014
:1041500002002060206800F0020001900198C02059
:104160003390122034900020CDE9350004203790A0
:1041700040F20040C5F60200FFF71AFDA06840F4C7
:104180000010A060A06800F400100190019838B001
:10419000B0BD00000000000040F2000040F24831D5
:1041A000C2F20040C2F2004100780A681044086080
:1041B000704700000000000080B5032000F008F9FF
:1041C00001F092FC44F2184149F61063C5F6020171
:1041D000C0F600030A68C2F303229A5C096801F082
:1041E0000F0102F01F02595CD04040F20C02C2F2F3
:1041F000004201F01F0120FA01F1116040F20801B4
:10420000C2F2004108600F2000F00AF800281CBF2D
:10421000012080BD00F07CF8002080BD000000007F
:10422000B0B540F20005C2F200452978F1B104466C
:1042300040F20800C2F200404FF47A72B2FBF1F192
:104240000068B0FBF1F002F067F80F2C01464FF068
:1042500001000AD8002918BFB0BD4FF0FF3000227E
:10426000214600F085F800206C60B0BD0120B0BD93
:1042700010B54EF6A05E4378CEF2000E90F800C066
:104280004EF8083CDEF8003023F00103CEF8003091
:1042900043684EF8043C037BC27A817A447B120661
:1042A00042EA0372837B42EAC141C27B41EA844114
:1042B000447A41EA4341007A41EA024141EA042159
:1042C00041EA400040EA0C00CEF8000010BD0000BA
:1042D0004EF62450CEF20000BFF35F8F016821F448
:1042E000803101600021016770470000000000007C
:1042F0004EF6245140F00100CEF200010867086834
:1043000040F480300860BFF34F8FBFF36F8F70476A
:1043100080B582B044F2F4400022C5F60200016884
:1043200041F0020101600068022100F002000190EA
:104330000198012000F01CF8012002B0BDE8804087
:1043400000F002B800000000002848BF704700F0ED
:104350001F01012202FA01F14EF20012C0F34A10CD
:10436000CEF2000242F8201070470000000000006A
:1043700070B54EF60C5C4FF0FF36CEF2000C00F13B
:10438000604505F56445DCF80030C3F3022E8EF07D
:104390000703042B28BF0423BEF1030406FA03F32A
:1043A00021EA030100F00F0338BF0024043B00287A
:1043B000634406FA04F048BF03F10C05A14022EA69
:1043C000000008430001287070BD000000000000DC
:1043D0004EF60C514FF6FF03CEF200010A681A4068
:1043E00060F30A2242F0806040F0FD700860704780
:1043F0007047000000000000B0B544F60C05C5F69B
:10440000020529684907296806D401F00701081A3E
:1044100018BF0120B0BD00BF21F00701084328608C
:10442000FFF7AAFC044600BF55F8080C800407D427
:10443000FFF7A2FC001BB0F57A7FF5D90120B0BDD3
:104440000020B0BD00000000B0B544F6000588248F
:10445000C5F60205C5F600042868C00644BF2068FA
:104460005FEAC03008D42868C00344BF20685FEA10
:10447000C0300BD4B0BD00BF00F016F86868C003B0
:10448000F1D4206840F480302060ECE7FFF7B0FF03
:104490006868C00648BFB0BD206840F48030206026
:1044A000B0BD0000000000007047000000000000E8
:1044B00080B501F091FA44F2204149F61062C5F648
:1044C0000201C0F600020968C1F30211515C01F05B
:1044D0001F01C84080BD000080B544F2304EC5F6D3
:1044E000020E5EF8083C5EF8081CC1F3051C5EF87D
:1044F000041CBCF1000FDEF8042019D001F001010A
:10450000494201EAD20103F003026FF35F31022A4C
:1045100000EE101AB8EE400A14D0012A0ED01AB9D3
:104520005EF8301C890611D49FED361A1CE000BFDE
:1045300000218160C0E9001180BD00BF9FED2F1AEE
:1045400012E000BF9FED2E1A0EE000BF5EF8301C97
:1045500049F20002C0F2D032C1F3C10122FA01F1E6
:1045600001EE101AB8EE411ADEF800109FED263A5F
:104570006FF35F2102EE101ADEF80010C1F346213E
:10458000B8EE422A00EE032A00EE10CAB7EE003A57
:10459000B8EE400A81EE000A32EE031A02EE101A5B
:1045A000B8EE422A20EE010A32EE031A80EE011A1A
:1045B000BCEEC11A80ED001ADEF80010C1F306410E
:1045C00001EE101AB8EE411A31EE031A80EE011A0C
:1045D000BCEEC11A80ED011ADEF80010C1F30661CD
:1045E00001EE101AB8EE411A31EE031A80EE010AFC
:1045F000BCEEC00A10EE101A816080BD0024744A1F
:1046000020BCBE4B0024744C0000003900000000A8
:1046100080B544F2384EC5F6020E5EF8103C5EF8E6
:10462000101C5EF80C2CC1F3053CDEF80410BCF144
:10463000000F15D0C908D20601EAE2716FF35F31AD
:1046400000EE101A03F003010229B8EE400A0DD063
:1046500081B95EF8381C890610D49FED361A1BE02C
:1046600000218160C0E9001180BD00BF9FED301ABC
:1046700012E000BF9FED2D1A0EE000BF5EF8381C5F
:1046800049F20002C0F2D032C1F3C10122FA01F1B5
:1046900001EE101AB8EE411ADEF800109FED263A2E
:1046A0006FF35F2102EE101ADEF80010C1F346210D
:1046B000B8EE422A00EE032A00EE10CAB7EE003A26
:1046C000B8EE400A81EE000A32EE031A02EE101A2A
:1046D000B8EE422A20EE010A32EE031A80EE011AE9
:1046E000BCEEC11A80ED001ADEF80010C1F30641DD
:1046F00001EE101AB8EE411A31EE031A80EE011ADB
:10470000BCEEC11A80ED011ADEF80010C1F306619B
:1047100001EE101AB8EE411A31EE031A80EE010ACA
:10472000BCEEC00A10EE101A816080BD0024744AED
:1047300020BCBE4B0024744C000000390000000077
:1047400080B544F2404EC5F6020E5EF8183C5EF8A5
:10475000181C5EF8142CC1F3055CDEF80410BCF1E3
:10476000000F15D0C908D20501EAE2716FF35F317D
:1047700000EE101A03F003010229B8EE400A0DD032
:1047800081B95EF8401C890610D49FED361A1BE0F3
:1047900000218160C0E9001180BD00BF9FED301A8B
:1047A00012E000BF9FED2D1A0EE000BF5EF8401C26
:1047B00049F20002C0F2D032C1F3C10122FA01F184
:1047C00001EE101AB8EE411ADEF800109FED263AFD
:1047D0006FF35F2102EE101ADEF80010C1F34621DC
:1047E000B8EE422A00EE032A00EE10CAB7EE003AF5
:1047F000B8EE400A81EE000A32EE031A02EE101AF9
:10480000B8EE422A20EE010A32EE031A80EE011AB7
:10481000BCEEC11A80ED001ADEF80010C1F30641AB
:1048200001EE101AB8EE411A31EE031A80EE011AA9
:10483000BCEEC11A80ED011ADEF80010C1F306616A
:1048400001EE101AB8EE411A31EE031A80EE010A99
:10485000BCEEC00A10EE101A816080BD0024744ABC
:1048600020BCBE4B0024744C000000390000000046
:1048700010B584B0024641F6FF7300209B1A70EB1E
:10488000010329DB40F2FF339B1A70EB01034FDA7F
:1048900082F480630B4300F0E18082F400630B43F9
:1048A00000F00E8182F48052114340F0B68144F250
:1048B0000041C5F60201086DC0F30232042A00F27D
:1048C0005E8148F20000C0F2BB00DFE812F00B018D
:1048D0001D012701A601350147F6FF739B1A70EBF6
:1048E000010351DA82F400430B4300F0D78082F4D5
:1048F00080330B4300F0F88082F40022114340F033
:104900008C8144F20040C5F60200816D01F4403113
:10491000B1F5003F00F04481B1F5803F00F03681F1
:10492000002940F02C810068000100F1F08026E1B0
:1049300082F480730B4353D082F40072114340F031
:104940006C8144F20041C5F60201086DC0F3821289
:10495000042A00F2148148F20000C0F2BB00DFE834
:1049600012F0C100D300DD005C010500C86C0A68CC
:10497000520700F04052086802D5002A00F03C813E
:10498000C00500F1E480E5E082F400530B434FD012
:1049900082F48042114340F0408144F20044C5F665
:1049A0000204A06DC0F30270052800F2E880DFE881
:1049B00010F007002D010F0119010301370100BF9D
:1049C00001F00AF8216A49F61062C0F60002C1F34C
:1049D0000211515C01F01F01C84004B010BD00BFBE
:1049E00044F20041C5F60201086D00F00702042AF6
:1049F00000F2C58048F20000C0F2BB00DFE812F010
:104A0000720084008E000D01060000BFC86C0A68A9
:104A1000520700F04052086802D5002A00F0EC80EE
:104A2000C00540F19780B2F1805F00F0088191E00D
:104A300044F20040C5F60200016DC1F302410529B0
:104A400000F29D80DFE801F00474C6D4BA3900BFDB
:104A500004B0BDE8104000F0E7BF00BF44F20041E1
:104A6000C5F60201886DC0F34252042A00F2878025
:104A700048F20000C0F2BB00DFE802F0344650CF3D
:104A8000040000BFC86C0A68520700F04052086872
:104A90005BD5002A00F0B08057E000BF44F2004030
:104AA000C5F60200016D01F04051B1F1005F3FD049
:104AB000B1F1805F60D0002961D10068B1E000BF32
:104AC00044F20041C5F60201886DC0F30262042A77
:104AD00055D848F20000C0F2BB00DFE802F0031531
:104AE0001F9E2D00086848E044F20040C5F6020011
:104AF000C16C0068C90340D5000140D501A8FFF78B
:104B000087FD039804B010BD0868000137D501A8DF
:104B1000FFF77EFD019804B010BD00BF086880005B
:104B20002DD501A8FFF70CFE019804B010BD00BF01
:104B30000068000123D56CE0C86C0A68520700F0D9
:104B40004052086801D5002A56D0C00502D5B2F1FE
:104B5000805F74D00868B2F1005F00F400314FF05C
:104B6000000004BF47F64000C0F27D10002908BFD6
:104B7000084604B010BD00BF0068800102D40020C8
:104B800004B010BD01A8FFF7A7FC45E00068800055
:104B9000F5D501A8FFF7D4FD039804B010BD00BF00
:104BA000C16C0268520701F04051026842D50029E9
:104BB00040D1C2F3C10021E0206800E0006840F667
:104BC0000011C005C0F23D0101EAE07004B010BD63
:104BD000206800E000688000D1D501A8FFF7B0FD93
:104BE0001AE000BF20684007C9D5206804E000BF74
:104BF00001684907C3D50068C0F3C10049F200014C
:104C0000C0F2D03121FA00F004B010BD20680001DC
:104C1000B5D501A8FFF7FCFC029804B010BD00BF99
:104C2000206847F640018003C0F27D1101EAE07080
:104C300004B010BDD20509D5B1F1805F06D140F6B0
:104C40000010C0F23D0004B010BD00BF0068B1F11B
:104C5000005F00F400324FF0000004BF47F6400050
:104C6000C0F27D10002A08BF104604B010BD00003D
:104C70002DE9F0470446C07844F22C480007C5F6F9
:104C8000020828D5A06E4FEA305103292AD8DFE860
:104C900001F0030B131B00BFD8F8001041F40031E2
:104CA000C8F8001010E000BF04F10800022102F073
:104CB00013FC064680B906E004F12800022102F048
:104CC0009FFC064640B9A06ED8F8241021F440118C
:104CD0000843C8F8240000266078C00706D135468E
:104CE0002FE000BF01266078C007F8D0A06D04282F
:104CF00058D83546DFE800F004140E0B0B0000BF57
:104D0000D8F80000354640F40030C8F800002F46BF
:104D1000C5B90DE004F12800002102F071FC04E0A7
:104D200004F10800002102F0D7FB05462F464DB9DB
:104D3000D8F82400A16D20F0070000250843C8F82A
:104D4000240037466078800731D5E06D4FEAB01017
:104D500004285FD8DFE800F004140E0A0A0000BF40
:104D6000D8F8000040F40030C8F800002E46FDB925
:104D70000EE000BF04F12800002102F041FC04E035
:104D800004F10800002102F0A7FB05462E467DB97C
:104D9000D8F82400E16D20F4E07000250843C8F83D
:104DA000240004E00125012760788007CDD43E4629
:104DB0006078400733D5D4F8A8004FEA7050042833
:104DC00060D8DFE800F003130D090900D8F80000EF
:104DD00040F40030C8F80000A9460DBB0EE000BF4B
:104DE00004F12800002102F00BFC04E004F10800AB
:104DF000002102F071FB0546A9468DB9D8F82C00B8
:104E0000D4F8A81020F4600000250843C8F82C004E
:104E100005E000BF0125012660784007CBD4B146EC
:104E20006078000734D5D4F8AC004FEA306004282D
:104E30005ED8DFE800F003130D090900D8F8000080
:104E400040F40030C8F800002F4615BB0EE000BF4C
:104E500004F12800002102F0D3FB04E004F1080073
:104E6000002102F039FB05462F4695B9D8F82C00F1
:104E7000D4F8AC1020F0E06000250843C8F82C00FE
:104E800006E000BF01254FF0010960780007CAD491
:104E90004F46E078800730D5E06C4FEA30100328A9
:104EA00020D8DFE800F00903150900BFD8F800009A
:104EB00040F40030C8F800002E46ADB9D8F8200004
:104EC000E16C20F0300000250843C8F8200014E011
:104ED00004F10800022102F0FFFA05462E461DB932
:104EE000ECE700BF012501266078C00609D434E054
:104EF00001250127E0788007CED43E466078C006C1
:104F00002BD5206E4FEA3030042839D8DFE800F086
:104F100004140E0A0A0000BFD8F8000040F4003064
:104F2000C8F800002F46CDB90EE000BF04F12800FC
:104F3000002102F065FB04E004F10800002102F00A
:104F4000CBFA05462F464DB9D8F82400216E20F43F
:104F5000E04000250843C8F8240037466078800602
:104F600035D5606E4FEA3040052815D8DFE800F0EF
:104F7000041A0E04040400BF2E46DDB91EE000BF73
:104F80000125012760788006EBD420E004F1280099
:104F9000012102F035FB0AE0012501266078400678
:104FA00019D449E004F10800012102F095FA054600
:104FB0002E461DB1607840060DD43DE0D8F824009F
:104FC000616E20F4E02000250843C8F824003E4626
:104FD0006078400630D5D4F8B0004FEA307005282C
:104FE0000ED8DFE800F00313070303032F46ADB923
:104FF00018E000BF04F12800012102F001FB0AE0E3
:1050000001250127607800061AD43CE004F108006D
:10501000012102F061FA05462F461DB160780006B5
:105020000ED430E0D8F82C00D4F8B01020F0E040D6
:1050300000250843C8F82C0037466078000622D5C2
:10504000206F58B1B0F1005F0CD0B0F1805F37D164
:10505000D8F8000040F40030C8F800002E469DB992
:1050600008E000BF04F10800012102F035FA05460E
:105070002E464DB9D8F82400216F20F0405000256D
:105080000843C8F824003E46E078C0071DD0A06C55
:10509000032855D8DFE800F008024A08D8F80000D5
:1050A00040F40030C8F80000A9467DB9D8F82000C7
:1050B000A16C20F0030000250843C8F8200004E09C
:1050C00001250126E078C007E1D1B146A07840066D
:1050D00002D44F4618E000BFD8F8D40340F48070E3
:1050E000C8F8D403FEF748FE064600BFD8F8D4033C
:1050F000C00507D4FEF740FE801B6428F6D90325BF
:10510000032701E02F46FDB12078C00700F06F8033
:10511000E06F4FEAF00005284ED8DFE800F00353B7
:1051200047030303002D2E4654D157E004F1080035
:10513000022102F0D1F90546002DA946C6D1B5E7F6
:1051400001254FF00109C1E7D8F84410D4F8B400A4
:10515000414011F4407F11D0D8F84410D8F84420D1
:1051600042F48032C8F84420D8F8442021F4407139
:1051700022F48032C8F84420C8F84410B0F5807F8B
:1051800040F0E082FEF7F8FD064641F2883A03253A
:10519000032700BFD8F84400800700F1D182FEF752
:1051A000EBFD801B5045F5D9AEE700BF04F12800A8
:1051B000012102F025FA0AE0012501262078800766
:1051C00019D446E004F10800012102F085F90546F2
:1051D0002E461DB1207880070DD43AE0D8F828007B
:1051E000E16F20F0380000250843C8F828003E464B
:1051F000207880072DD5A06F05280FD8DFE800F0B4
:1052000004140804040400BF2F46ADB918E000BF21
:1052100004F12800012102F0F3F90AE00125012739
:105220002078400719D447E004F10800012102F07A
:1052300053F905462F461DB1207840070DD43BE0B9
:10524000D8F82800A16F20F0070000250843C8F80F
:1052500028003746207840072ED5D4F8940005283A
:105260000ED8DFE800F00313070303032E46ADB9A1
:1052700018E000BF04F12800012102F0C1F90AE0A2
:1052800001250126207880061AD44BE004F108009D
:10529000012102F021F905462E461DB12078800635
:1052A0000ED43FE0D8F82C00D4F8941020F007007A
:1052B00000250843C8F82C003E462078800631D5EA
:1052C000D4F890004FEA307005280FD8DFE800F0DE
:1052D00004140804040400BF2F46ADB918E000BF51
:1052E00004F12800022102F08BF90AE001250127D0
:1052F000207840061AD44BE004F10800002102F0A7
:10530000EBF805462F461DB1207840060ED43FE04D
:10531000D8F82800D4F8901020F0E0400025084389
:10532000C8F8280037462078400631D5D4F89C00CC
:105330004FEAB02005280FD8DFE800F00414080475
:10534000040400BF2E46ADB918E000BF04F12800E8
:10535000022102F055F90AE0012501262078000615
:105360001AD44EE004F10800002102F0B5F8054619
:105370002E461DB1207800060ED442E0D8F82C004D
:10538000D4F89C1020F4E05000250843C8F82C0005
:105390003E462078000634D5D4F8A0004FEA70309D
:1053A000052815D8DFE800F0041A0E04040400BF35
:1053B0002F46E5B12068010727D4C1063ED400037B
:1053C00055D477E004F12800022102F019F90AE02F
:1053D0000125012720680107EFD516E004F1080038
:1053E000002102F079F80546002D2F46E2D1D8F8C9
:1053F0002C00D4F8A01020F4604000250843C8F821
:105400002C00374620680107D7D5D4F88400B0F5C2
:10541000805F09D104F12800022102F0F1F8002890
:1054200018BF0127D4F88400D8F8281021F440517F
:105430000843C8F828002068C106C0D5D4F89800F1
:10544000B0F5807F09D104F12800022102F0D8F8DC
:10545000002818BF0127D4F89800D8F82C1021F4A0
:1054600040710843C8F82C002068000322D5D4F806
:10547000A400B0F5003F11D0B0F5803F08D000285F
:1054800044D104F10800002102F026F805E000BF35
:1054900004F12800022102F0B3F805462E4655B962
:1054A000D8F82C00D4F8A41020F44030002508438C
:1054B000C8F82C003E46A07840072CD5D4F88800C8
:1054C000B0F5401F0BD0B0F5001F0BD0B0F5801F1A
:1054D0002AD1D8F8000040F40030C8F800002F4668
:1054E000D5B907E004F12800012102F089F805464A
:1054F0002F468DB9D8F82800D4F8881020F4401031
:1055000000250843C8F8280005E000BF0125012652
:10551000A0784007D2D43746A078C00709D13E46CC
:105520002168880015D532E001250127A078C00741
:10553000F5D0206DB0F5803F10D018BBD8F8000032
:1055400040F40030C8F800002E4685B1216888007C
:105550001DD460688A0326D469E000BF04F1080006
:10556000022101F0B9FF0546002D2E46EED1D8F8F4
:105570002000216D20F4803000250843C8F8200069
:10558000CDE700BF0125012621688800E1D504F19F
:105590002800022102F034F8002818BF0126D4E9BF
:1055A00000108A0343D5D4F880206FF0010303EB89
:1055B0003223022B0BD34FEA322343B1012B40F0AD
:1055C000B980D8F8003043F40033C8F800303DB358
:1055D000CA022FD4CA0037D48A0240D44A0048D421
:1055E000CA0F55D109025DD4C10766D181076FD4B6
:1055F000410779D4010700F18380C10600F18C8056
:10560000800607D504F12800022101F0F9FF0028E7
:1056100018BF0125002D18BF01252846BDE8F087D9
:10562000D8F8283023F440731A43C8F828203546A8
:10563000CA02CFD5D8F82420636F22F000421A4363
:10564000C8F82420CA00C7D558F81C2CD4F8B830A4
:1056500022F480421A4348F81C2C8A02BED5D8F89E
:105660002420E36E22F080721A43C8F824204A00F6
:10567000B6D558F81C2C22F4004248F81C2CD4F85B
:10568000BC2058F81C3C1A4348F81C2CCA0FA9D05F
:10569000D8F82020636D22F040521A43C8F8202029
:1056A0000902A1D5D8F82810D4F88C2021F44001A3
:1056B0001143C8F82810C10798D004F10800002150
:1056C00001F00AFF002818BF0546606881078FD5E2
:1056D00004F10800012101F0FFFE002818BF054673
:1056E000606841077FF586AF04F10800022101F0F0
:1056F000F3FE002818BF0546606801077FF57DAFFF
:1057000004F12800002101F07BFF002818BF0546A6
:105710006068C1067FF574AF04F12800012101F033
:105720006FFF002818BF0546606880063FF56AAF26
:1057300070E700BF0125CA027FF54CAF7AE700BFD2
:10574000D4F8B4004FF6CF7358F81C2CC0F2FF0306
:1057500000F4407122F47C5203EA10136FF31F30FF
:10576000B1F5407F08BF1A43002548F81C2CD8F833
:1057700044100843C8F84400FFF7ABBC0000000029
:105780002DE9F04381B0002800F0208142F20009A9
:105790000446C5F20029D9F8000000F00F00884245
:1057A0000DD2D9F8000020F00F000843C9F800001E
:1057B000D9F8000000F00F00884240F0078120680F
:1057C00044F218464207C5F602060AD52269336834
:1057D00003F070039A4204D9336823F070031A432C
:1057E000326002070AD56269736803F070039A4257
:1057F00004D9736823F070031A437260C2060AD595
:10580000A269736803F4E0639A4204D9736823F4CD
:10581000E0631A43726082060AD5E269B36803F056
:1058200070039A4204D9B36823F070031A43B2603C
:1058300010F002020AD0E368376807F00F07BB4296
:1058400004D9376827F00F073B433360C3073FD0C5
:10585000306820F47062D4E901031A4332600128F1
:1058600056F8182C0AD0032804D002280AD1920333
:105870000BD4ABE0920108D4A8E000BFD20504D459
:10588000A4E000BF520740F1A180884656F8081CEA
:1058900021F00701084346F8080CFEF76DFA0546AB
:1058A00041F2883756F8080C616800F03800B0EB18
:1058B000C10F09D0FEF760FA401BB842F2D90320AD
:1058C00001B0BDE8F08300BF2068414600F002024D
:1058D00052B1E268336803F00F039A4204D233688E
:1058E00023F00F031A433260D9F8002002F00F02B0
:1058F0008A420CD9D9F8002022F00F020A43C9F8D5
:105900000020D9F8002002F00F028A425ED1410740
:105910000AD52169326802F07002914204D23268DD
:1059200022F070021143316001070AD56169726883
:1059300002F07002914204D2726822F070021143A8
:105940007160C1060AD5A169726802F4E0629142F1
:1059500004D2726822F4E0621143716080060AD5B5
:10596000E069B16801F07001884204D2B16821F0A9
:1059700070010843B06000F0B7F8316849F6106272
:10598000C0F60002C1F30321515C336803F00F033A
:1059900001F01F01D25C20FA01F102F01F0040F279
:1059A0000C02C2F2004221FA00F0106040F2040042
:1059B00040F20802C2F20040C2F2004200681160E8
:1059C00001B0BDE8F043FEF72BBC00BF012001B0E1
:1059D000BDE8F0830000000080B500F085F844F2D7
:1059E000184149F61063C5F60201C0F600030A68C3
:1059F000C2F303229A5C096801F00F0102F01F0252
:105A0000595C20FA02F201F01F0040F20C01C2F2D0
:105A1000004122FA00F0086040F20801C2F20041A1
:105A20000A6080BD0000000080B500F05DF844F21F
:105A3000184C49F61063C5F6020CC0F60003DCF8FA
:105A40000020C2F303229A5CDCF8001001F00F0181
:105A500002F01F02595CD04040F20C02C2F2004238
:105A600001F01F0120FA01F1116040F20802C2F2B8
:105A700000421060DCF80400C0F30210185C00F073
:105A80001F0021FA00F080BD80B500F02DF844F22F
:105A9000184C49F61063C5F6020CC0F60003DCF89A
:105AA0000020C2F303229A5CDCF8001001F00F0121
:105AB00002F01F02595CD04040F20C02C2F20042D8
:105AC00001F01F0120FA01F1116040F20802C2F258
:105AD00000421060DCF80400C0F30220185C00F003
